:020000040000FA
:10000000B0040010A9010000B1010000B30100001C
:10001000B5010000B7010000B901000000000000B8
:10002000000000000000000000000000BB01000014
:10003000BD01000000000000BF010000C101000080
:10004000C3010000AD3D000021400000C3010000DD
:10005000C3010000C3010000C3010000C301000090
:10006000C3010000C3010000C3010000C301000080
:10007000C3010000C3010000C3010000C301000070
:10008000C3010000C3010000C3010000C301000060
:10009000C3010000C3010000C3010000C301000050
:1000A000C3010000C3010000C3010000C301000040
:1000B000C3010000C3010000C3010000C301000030
:1000C000C3010000C3010000C301000000F002F8FA
:1000D00000F041F80AA090E8000C82448344AAF1A1
:1000E0000107DA4501D100F036F8AFF2090EBAE89F
:1000F0000F0013F0010F18BFFB1A43F0010318475C
:100100003451000054510000103A24BF78C878C11F
:10011000FAD8520724BF30C830C144BF04680C600D
:10012000704700000023002400250026103A28BF55
:1001300078C1FBD8520728BF30C148BF0B60704759
:10014000642904F09980002070471FB504F081F9FC
:100150001FBD10B510BD04F060FA1146FFF7F5FFA2
:1001600002F0BCFC04F07EFA03B4FFF7F2FF03BC1C
:1001700004F046FA0B49D1F800C04A685CF8043B29
:100180001068184442F8040B8C4528BFA1F1DC0C20
:100190008A4228BFA1F1DC02C1F800C04A6020F009
:1001A000004070474802001009488047094800474E
:1001B000FEE7FEE7FEE7FEE7FEE7FEE7FEE7FEE717
:1001C000FEE7FEE704480549034A054B7047000077
:1001D0002D040000CD000000B0020010B00400109B
:1001E000B0020010F0B504460B46154619466000F3
:1001F0003B4A102901D31039401C52F820604FEAC5
:10020000410C032707FA0CF7BE4342F8206052F86E
:1002100020604F0005FA07F73E4342F82060F0BD2A
:10022000F0B504460B461546194660002C4A40328C
:10023000102901D31039401C52F820604FEA410CBC
:10024000032707FA0CF7BE4342F8206052F82060FB
:100250004F0005FA07F73E4342F82060F0BD30B585
:100260000B461F496831012A07D151F8204001256A
:100270009D402C4341F8204006E051F820400125E4
:100280009D40AC4341F8204030BD012806D11449BF
:10029000896A41F00801124A916206E028B91049C2
:1002A000896A21F008010E4A91627047012800D145
:1002B000052201B90A220A4BDA67704710B50446D5
:1002C000A27861782078FFF78DFFE2786178207856
:1002D000FFF7A6FF227961782078FFF7C0FF10BDF5
:1002E00000C002407047704770470A6802F8010B6F
:1002F0000A6070477047000000000000FFFFFFFF2A
:1003000097480068C0F3016003285DD194488430A9
:10031000006800F0030030B1012820D0022839D055
:10032000032850D100E000BF8D480068C0F30E00E4
:10033000401C40008B49484389498839D1F88810CE
:10034000C1F30741491CB0FBF1F185487C300068DE
:10035000C0B2401CB1FBF0F08349086033E0804834
:100360000068C0F30E00401C4000804948437C49AF
:100370008839D1F88810C1F30741491CB0FBF1F16D
:1003800077487C300068C0B2401CB1FBF0F0764981
:10039000086018E072480068C0F30E00401C0104B9
:1003A0006F488838D0F88800C0F30740401CB1FB84
:1003B000F0F16B487C300068C0B2401CB1FBF0F03B
:1003C0006949086000BF30E065488430006800F08B
:1003D000030030B1012810D0022819D0032823D1FE
:1003E00000E000BF5E487C300068C0B2401C5D4940
:1003F000B1FBF0F05C49086016E059487C300068B9
:10040000C0B2401C5949B1FBF0F0574908600BE0FD
:1004100053487C300068C0B2401C4FF40041B1FB2F
:10042000F0F05149086000BF00BF704720205049DC
:1004300008604B488838D0F8A00100F0200030B1A7
:1004400000BF4B48006800F040000028F9D00320AE
:1004500043497C310860002041498839C1F8A8012E
:1004600043490C31086001203D498431086041480E
:100470003B49091F0860AA203949091D0860552019
:1004800008600120364908390860AA203449091D4E
:100490000860552032498839C1F88C0000BF3048C7
:1004A000006800F080600028F9D003202C4908394A
:1004B0000860AA202A498839C1F88C0055202849AB
:1004C000091D086000BF2648006800F04070002841
:1004D000F9D0232022491C310860AA2020498839FC
:1004E000C1F8AC0055201E492431086001201C4988
:1004F00018310860AA201A4924310860552018498B
:100500008839C1F8AC0000BF15482030006800F4FD
:1005100080600028F8D00320114918310860AA2013
:100520000F498839C1F8AC0055200D4924310860C5
:1005300000BF0B482030006800F440700028F8D05D
:100540000D4807493C310860002005498839C1F849
:10055000C80143F23A00086000200849086070476B
:1005600088C00F4000093D0000000010001BB700CC
:10057000A0C10F4063000500DE87280408ED00E0FD
:1005800010B50A46202801D2034601E0A0F120035D
:100590001946202810D2454B1B6803248C40A343E6
:1005A000434CC4F8A831414B1B6802FA01F42343C1
:1005B0003F4CC4F8A83111E03C4B1B1D1B680324C1
:1005C0008C40A3433A4CC4F8AC31384B1B1D1B681C
:1005D00002FA01F42343364CC4F8AC3110BD014695
:1005E000202903D20A46314B186804E0A1F1200209
:1005F0002E4B1B1D186820FA02F303F0030070470E
:1006000070B506462B4804683046FFF7E8FF0546FC
:1006100035B1012D06D0022D06D0032D08D105E0FD
:10062000042505E0012503E0022501E0082500BFBF
:1006300000BFB4FBF5F4204670BD012909D11C4A66
:10064000C43212681C4B03401A43194BC3F8C42030
:1006500009E041B9164AC4321268174B83431A4065
:10066000134BC3F8C420704700201149C031086003
:1006700030BF704704201149086008200C49C03180
:10068000086030BF704704200C4908600920084901
:10069000C031086030BF704704200849086003205B
:1006A0000349C031086030BF70470000A8C10F4047
:1006B00000C00F4000000010DEF7EFEF10ED00E08B
:1006C00001460020052912D2DFE801F00305080BDE
:1006D0000E00FB480CE0FA48203009E0F8484030B2
:1006E00006E0F748603003E0F548803000E000BFE6
:1006F00000BF704701460020052912D2DFE801F053
:100700000305080B0E00EE480CE0ED48203009E030
:10071000EB48403006E0EA48603003E0E8488030CB
:1007200000E000BF00BF704701460020052912D23B
:10073000DFE801F00305080B0E00E1480CE0E0489B
:10074000203009E0DE48403006E0DD48603003E05C
:10075000DB48803000E000BF00BF70472DE9F0416A
:1007600007460D4616463846FFF7AAFF04463CB139
:100770001EB120682843206002E02068A843206062
:10078000BDE8F08170B506460C463046FFF798FF8D
:10079000054605B1AC6170BD70B506460C463046E5
:1007A000FFF78EFF054605B1EC6170BD70B50546DB
:1007B0002846FFF785FF04460CB1606970BD002034
:1007C000FCE718B912B9BF4B196017E0022804D131
:1007D0001AB9BC4B2033196010E028B9012A03D1A3
:1007E000B84B1B1D196009E0022805D1012A03D16D
:1007F000B44B2433196001E000BFFEE770470346A5
:100800003BB932B9AF480C380068C84000F001006D
:100810007047022B07D132B9AA4814300068C8408B
:1008200000F00100F4E743B9012A06D1A5480838D1
:100830000068C84000F00100EAE7022B08D1012A55
:1008400006D1A04818300068C84000F00100DFE77A
:1008500000BFFEE718B99B4A121F116007E002288B
:1008600003D1984A1C32116001E000BFFEE77047D7
:1008700070B504460D461646324629462046FFF717
:100880006DFF70BD70B504460D4629462046FFF742
:1008900079FF70BD70B504460D4629462046FFF726
:1008A0007BFF70BD10B504462046FFF77FFF10BDEB
:1008B00070B504460D461646324629462046FFF7D7
:1008C00080FF70BD70B504460D4616463246294677
:1008D0002046FFF794FF70BD10B503460C46214635
:1008E0001846FFF7B7FF10BD2DE9F04107460D464A
:1008F00016463846FFF7E4FE04463CB11EB12069B7
:100900002843206102E02069A8432061BDE8F0810E
:100910002DE9F04180460E4615461F464046FFF73A
:10092000E9FE04468CB147B11EB16088284360805F
:100930000BE020882843208007E01EB16088A84390
:10094000608002E02088A8432080BDE8F0812DE986
:10095000F04180460E4615461F464046FFF7CAFE48
:1009600004468CB147B11EB1608A284360820BE017
:10097000208A2843208207E01EB1608AA843608253
:1009800002E0208AA8432082BDE8F0812DE9F041F1
:1009900007460E4614463846FFF7ACFE05461DB125
:1009A0000EB16C8300E02C83BDE8F0812DE9F041AD
:1009B00007460E4614463846FFF79CFE05461DB115
:1009C0000EB1EC8300E0AC83BDE8F08170B5064663
:1009D0000D463046FFF78EFE044624B10DB1E08A85
:1009E00070BDA08AFCE70020FAE72DE9F0418046BF
:1009F0000C4616461F464046FFF796FE05465DB17B
:100A00002FB1032C08DC285D3043285504E0032C6B
:100A100002DC285DB0432855BDE8F0812DE9F041A6
:100A200080460C4616461F464046FFF77DFE0546AB
:100A30009DB14FB1032C10DC05F11000005D304377
:100A400005F11001085508E0032C06DC05F1100043
:100A5000005DB04305F110010855BDE8F0812DE9B6
:100A6000F04107460C4615463846FFF75DFE064640
:100A700026B1032C02DC06F118000555BDE8F08113
:100A80002DE9F04107460C4615463846FFF74CFE67
:100A9000064626B1032C02DC06F11C000555BDE814
:100AA000F08170B506460C463046FFF73DFE054620
:100AB00055B1032C08DC05F11400005D70BD000089
:100AC00000C00920908002400020F7E770B505467D
:100AD00035B1012D09D0022D0CD0032D14D10EE01B
:100AE0000220FFF78DFD04460EE00420FFF788FD8D
:100AF000044609E02C20FFF783FD044604E02E2085
:100B0000FFF77EFD044600BF00BF204670BD2DE903
:100B1000F04781460C464846FFF7D8FF00260546B9
:100B200000232946A1FB047C06FB04C205FB03212C
:100B3000FB4A384603F0EAFA05462846BDE8F08746
:100B400001464FF0FF30B1F1402F01D100200DE000
:100B5000F44A914201D1012008E0F34A914201D1C7
:100B6000022003E0F14A914200D10320704770B5A2
:100B700005460C46B5F1402F08D0EA48854205D01D
:100B8000E948854202D0E948854200D103E0A62128
:100B9000E7A002F01BF84CB1012C07D0022C05D0C5
:100BA000032C03D0042C01D0052C00D103E0A72195
:100BB000DFA002F00BF828680121A1400840C6B26E
:100BC0000EB1012070BD0020FCE770B505460C4653
:100BD000B5F1402F08D0D348854205D0D248854290
:100BE00002D0D248854200D103E0C421D0A001F058
:100BF000EDFF4CB1012C07D0022C05D0032C03D003
:100C0000042C01D0052C00D103E0C521C8A001F0BF
:100C1000DDFF2868211D01228A401040C6B20EB1B6
:100C2000012070BD0020FCE770B505460C46B5F10B
:100C3000402F08D0BB48854205D0BB48854202D032
:100C4000BA48854200D103E0DD21B9A001F0BEFF22
:100C50004CB1012C07D0022C05D0032C03D0042C5E
:100C600001D0052C00D103E0DE21B1A001F0AEFFE0
:100C70000120A040286070BD70B505460C46B5F156
:100C8000402F08D0A748854205D0A748854202D00A
:100C9000A648854200D103E0F421A5A001F096FF0B
:100CA0004CB1012C07D0022C05D0032C03D0042C0E
:100CB00001D0052C00D103E0F5219DA001F086FFB5
:100CC000201D01218140296070BD20B90A46012301
:100CD0001370536003E00A460023537000BF70474F
:100CE0002DE9F04704460D461646B4F1402F08D0D2
:100CF0008C48844205D08C48844202D08B48844280
:100D000000D104E040F22B1189A001F05FFF1DB17A
:100D1000012D01D000D000D104E04FF4967184A0E1
:100D200001F054FFB4F1402F08D101210220FFF758
:100D300084FC00210220FFF723FC22E07948844252
:100D400008D101210420FFF778FC00210420FFF7DF
:100D500017FC16E07448844208D101218805FFF78A
:100D60006CFC00212C20FFF70BFC0AE06F4884424A
:100D700007D10121C805FFF760FC00212E20FFF7F5
:100D8000FFFBA06A20F00300A062A06AA06200201E
:100D9000A0602061E060606840F002006060606810
:100DA00020F00200606085B93746387818B9786855
:100DB000401EE06017E02046FFF7C2FE81467968DA
:100DC000FFF7A5FE401EE0600DE0B046A06A20F0EF
:100DD0000C00A062464698F80100012803D1A06AE1
:100DE00040F00400A0624FF0FF302060BDE8F087C3
:100DF00010B50446B4F1402F08D04A48844205D0CB
:100E00004948844202D04948844200D104E040F27B
:100E1000791147A001F0DAFE00206060B4F1402FA4
:100E200004D100210220FFF708FC18E03D4884426D
:100E300004D100210420FFF700FC10E03A4884426E
:100E400005D100214FF48000FFF7F7FB07E037489A
:100E5000844204D100214FF48000FFF7EEFB10BD67
:100E600070B504460D46B4F1402F08D02D48844299
:100E700005D02D48844202D02C48844200D104E0A1
:100E80004FF4CD712AA001F0A1FE012D04D16068BC
:100E900040F00100606003E0606820F001006060E5
:100EA00070BD10B50446B4F1402F08D01D488442EF
:100EB00005D01D48844202D01C48844200D104E081
:100EC0004FF4D9711AA001F081FE606840F0020071
:100ED0006060606820F00200606010BD70B504467C
:100EE0000D46B4F1402F08D00E48844205D00E487C
:100EF000844202D00D48844200D104E040F2D11176
:100F00000BA001F063FE287940B12879012805D0B3
:100F10002879022802D02879032829D12EE0000060
:100F200040420F000080004000000940004009409E
:100F30002E2E5C4C69627261726965735C4C435021
:100F4000313736385F5374645065726970685F4436
:100F500072697665725C736F757263655C6C7063E1
:100F6000313778785F74696D65722E630000000018
:100F70004FF4E971AFF2480001F028FE287830B153
:100F8000012807D0022808D003280CD108E0A8685F
:100F9000A0610AE0A868E06107E0A868206204E0B8
:100FA000A868606201E000BFFEE700BF60692978C1
:100FB00001EB41020721914088436061687838B1B4
:100FC0006069297801EB4102012191400843606189
:100FD000E87840B16069297801EB4101491C0122A0
:100FE0008A4010436061A87840B16069297801EBBC
:100FF0004101891C01228A4010436061E06B29781D
:10100000042202EB4102032191408843E0632879E6
:1010100000F003002978042202EB41018840E16BD3
:101020000843E06370BD70B504460E461546B4F142
:10103000402F08D04348844205D04348844202D020
:101040004248844200D105E040F20721AFF220106F
:1010500001F0BCFD36B1012E06D0022E06D0032EC3
:1010600008D105E0A56107E0E56105E0256203E040
:10107000656201E000BFFEE700BF70BD70B50446C9
:101080000D46B4F1402F08D02E48844205D02E489A
:10109000844202D02D48844200D105E040F22D2147
:1010A000AFF2741001F092FDA06A297801EB4102C1
:1010B000072191408843A062687838B1A06A2978F6
:1010C00001EB4102012191400843A062A87840B1A0
:1010D000A06A297801EB4101491C01228A40104392
:1010E000A062E87840B1A06A297801EB4101891C2F
:1010F00001228A401043A06270BD70B504460D46BF
:10110000B4F1402F08D00F48844205D00E488442E5
:1011100002D00E48844200D105E04FF41271AFF2C4
:10112000F01001F053FD0DB1012D00D105E040F2AA
:101130004921AFF2042001F049FD0DB9E06A70BD0C
:10114000206BFCE70080004000000940004009409F
:101150002DE9F04704468846F648844202D0F64816
:10116000844200D103E04321F4A001F02FFDF148B7
:10117000844204D12A20FFF743FA074609E0EE48EB
:10118000844204D11420FFF73BFA074601E0BDE892
:10119000F08700254FF0FF3902260AE0681C7043F3
:1011A000B7FBF0F9C14504D96D1CFF2D01D900250D
:1011B000B61CC145F2D82068C0B2206020684FF646
:1011C000FF7101EA052108432060F0B2206100BFF1
:1011D000DDE770B504460D46D648844202D0D648B5
:1011E000844200D103E08121D4A001F0EFFCD1487A
:1011F000844204D101214805FFF71FFA08E0CE48D8
:10120000844204D101210015FFF717FA00E070BDF8
:10121000A88829890843298A08432988084386B26F
:101220002660287B00F00F06666020466969FFF79C
:101230008FFF00BFEBE710B50446BE48844202D0E2
:10124000BD48844200D103E0A821BCA001F0BEFC4F
:10125000B848844205D100214FF40010FFF7EDF9A2
:1012600006E0B548844203D100210015FFF7E5F9F7
:1012700010BD10B50446AF48844202D0AE48844247
:1012800000D103E0C021ADA001F0A0FC206800F077
:101290000F0010BD002141608160B7494161072105
:1012A00001600021C1600161704770B504460D46C0
:1012B000A048844202D0A048844200D103E0E52146
:1012C0009EA001F083FC0DB1012D00D103E0E621C9
:1012D0009AA001F07BFC012D04D1606840F002006F
:1012E000606003E0606800F00D00606070BD70B584
:1012F00004460D468F48844202D08F48844200D174
:1013000003E0FE218DA001F061FC0DB1012D00D1A3
:1013100003E0FF2189A001F059FC012D04D1606890
:1013200040F00100606003E0606800F00E00606063
:1013300070BD70B504460D467E48844202D07E489A
:10134000844200D104E04FF48D717CA001F03EFC9A
:101350000DB1012D00D104E040F21B1177A001F086
:1013600035FC012D04D1606800F00700606003E0E7
:10137000606840F00800606070BD70B504460D46BE
:101380006C48844202D06C48844200D104E04FF49F
:101390009A716AA001F01AFCA8B2A06070BD10B5E5
:1013A00004466448844202D06348844200D104E089
:1013B0004FF4A27161A001F009FCA06880B210BDD9
:1013C0002DE9F74F82B006460C460020E0606060D1
:1013D000606103E03046FFF7E2FF0746F06800F087
:1013E00004000028F6D1032030623046FFF741FFA9
:1013F000082801DD012500E00025049800287AD1A5
:1014000025B9D4F80890D4F800A003E0D4F808B0C7
:101410002068019060E0F06800F0020010B32169DC
:10142000606888422AD0206888B93DB9FF213046DB
:10143000FFF7A3FF6068401C60601FE04FF6FF717C
:101440003046FFF79AFF6068801C606016E055B96F
:101450009AF800103046FFF790FF0AF1010A606821
:10146000401C60600AE0019801883046FFF785FF64
:101470000198801C01906068801C6060D6F818801C
:1014800008F0010038B148F4007060614FF0FF309F
:1014900005B0BDE8F08F17E03046FFF780FF074644
:1014A000A06848B125B989F8007009F1010903E085
:1014B000ABF800700BF1020B1DB9E068401CE06056
:1014C00002E0E068801CE060F06800F0040018B101
:1014D000D4E903018842DFD12169606888429AD14A
:1014E000D4E90301884296D14FF48070606120688E
:1014F00010B16068CCE705E0A06808B1E068C7E714
:101500000020C5E7049801287ED176E02068A8BBBA
:101510003DB9FF213046FFF730FF6068401C606036
:1015200041E04FF6FF713046FFF727FF6068801CEF
:10153000606038E000800840000003402E2E5C4CC4
:1015400069627261726965735C4C43503137363839
:101550005F5374645065726970685F447269766540
:10156000725C736F757263655C6C70633137787829
:101570005F7373702E63000040420F00FFE74DB9A8
:10158000D4E90002815C3046FFF7F7FE6068401C3A
:10159000606008E0D4E90002815A3046FFF7EDFEB2
:1015A0006068801C6060D6F8188008F0010028B1DF
:1015B00048F4007060614FF0FF3069E715E0304695
:1015C000FFF7EDFE0746A06838B11DB9D4E9021255
:1015D0008F5402E0D4E902128F521DB9E068401C1A
:1015E000E06002E0E068801CE060F06800F0040069
:1015F00018B1D4E903018842E1D1F06800F002009B
:1016000030B12169606800E012E088427FF47EAF6B
:10161000D4E90301884203D121696068884202D07D
:101620000F20706102E04FF48070606100202FE7AE
:101630004FF0FF302CE770B505460C4676488542E2
:1016400002D07648854200D105E04FF40571AFF233
:10165000141001F0BBFA012C07D0022C05D0042C89
:1016600003D0082C01D0102C00D105E040F2152148
:10167000AFF2381001F0AAFAE868204008B1012062
:1016800070BD0020FCE770B504460D461646624862
:10169000844202D06148844200D105E04FF40B71CE
:1016A000AFF2681001F092FA012E03D1606928436D
:1016B000606104E060690F21A9430840606170BD6A
:1016C00070B505460C465448854202D053488542C1
:1016D00000D105E040F24921AFF2A01001F076FA06
:1016E000012C05D0022C03D0042C01D0082C00D1F1
:1016F00005E040F24A21AFF2BC1001F067FAA86998
:10170000204008B1012070BD0020FCE710B5044660
:101710004148844202D04148844200D105E04FF460
:101720001671AFF2E81001F051FAA06910BD70B562
:1017300005460C463848854202D03848854200D1DB
:1017400005E040F26D21AFF20C2001F03FFA012CD0
:1017500005D0022C03D0042C01D0082C00D105E0C8
:1017600040F26E21AFF22C2001F030FAE8692040FF
:1017700008B1012070BD0020FCE770B504460D469D
:101780002548844202D02548844200D105E040F239
:101790008121AFF2582001F019FA012D01D0022D5C
:1017A00000D105E040F28221AFF2702001F00EFA84
:1017B000256270BD70B504460D4616461648844233
:1017C00002D01648844200D105E040F29721AFF2E2
:1017D000942001F0FBF9022D01D0012D00D105E08C
:1017E0004FF42671AFF2AC2001F0F0F90EB1012EEA
:1017F00000D105E040F29921AFF2C02001F0E6F9F6
:10180000012E03D1606A2843606204E0606A03210C
:10181000A9430840606270BD00800840000003409A
:101820000146F748814201D100207047F5488142C6
:1018300001D10120F9E7F448814201D10220F4E707
:101840004FF0FF30F1E70146202008600820886152
:1018500000BF086800F008000028FAD02020886146
:10186000486800F0F8007047016801F0200109B1F4
:1018700020218161102101600821816170470246A9
:10188000106800F0200008B120209061C8B290607C
:101890000820906100BF106800F008000028FAD00E
:1018A000506800F0F80070470346012A02D1042076
:1018B000186001E0042098610820986100BF186852
:1018C00000F008000028FAD098680870586800F006
:1018D000F800704770B504460E46C948844205D0EA
:1018E000C848844202D0C848844200D103E0E021C5
:1018F000C6A001F06BF9C248844205D10E20FEF764
:101900007FFEB0FBF6F510E0BE48844205D12620EC
:10191000FEF776FEB0FBF6F507E0BB48844204D143
:101920003420FEF76DFEB0FBF6F5680820612069F3
:10193000281A606170BD70B504460D46B0488442F7
:1019400005D0B048844202D0AF48844200D104E0C0
:101950004FF48471ADA001F039F9A948844208D14F
:1019600001218020FEF769FE02210E20FEF708FE0D
:1019700018E0A448844208D10121C804FEF75DFEA6
:1019800002212620FEF7FCFD0CE09F48844208D18E
:1019900001218806FEF751FE02213420FEF7F0FDFA
:1019A00000E070BD29462046FFF794FF6420A06147
:1019B00000BFF6E710B504469148844205D091482F
:1019C000844202D09048844200D104E04FF49C71DC
:1019D0008EA001F0FBF84020A0618948844204D128
:1019E00000218020FEF729FE10E08648844205D1C0
:1019F00000214FF40020FEF720FE07E082488442D9
:101A000004D100214FF08060FEF717FE10BD70B5C5
:101A100004460D460DB1012D00D104E040F25911EC
:101A20007AA001F0D3F87648844205D07548844204
:101A300002D07548844200D104E04FF4AD7173A028
:101A400001F0C4F8012D02D14020206001E04020C7
:101A5000A06170BD70B504460D46A5B168488442CA
:101A600003D10A2000F08CFC21E06648844203D1B7
:101A70000B2000F085FC1AE06348844217D10C204B
:101A800000F07EFC13E05E48844203D10A2000F09F
:101A900082FC0CE05B48844203D10B2000F07BFC0D
:101AA00005E05948844202D10C2000F074FC70BD5E
:101AB0002DE9F04105462846FFF7B2FE064662488A
:101AC00050F83640686800F0F8076762F82F03D1D5
:101AD0000820A861BDE8F0815B4800EBC6004068C3
:101AE000002857D1202F48D006DC082F0BD0102F0C
:101AF0000AD0182F4CD115E0282F14D0302F3DD00C
:101B0000382F45D13FE000BF2020A861606838B180
:101B1000A06828B120684000A8600820A86100E003
:101B200012E036E000BFD4E9021088420BD26068B0
:101B300048B1E1686068405CA860E068401CE06013
:101B40000820A86118E000BF01203F4901EBC60151
:101B50004860606958B1206948B1A06830B16068D8
:101B600020B1202028600C20A86105E031E0606AE7
:101B700040F480606062B6E00BE000BF606A40F451
:101B800000706062A0E0606A40F48070606200BF34
:101B90009AE0B5E02C4800EBC60040680128F8D177
:101BA000402F24D006DC082F0BD0102F0AD0382F5E
:101BB0007DD183E0482F7CD0502F4CD0582F76D148
:101BC00063E000BF2020A861206950B1606940B186
:101BD00000BF0121206801EB4000A8600820A86137
:101BE00004E0606A40F4806060627CE087E0D4E9F1
:101BF0000501401E814229D20420286028E000000F
:101C000000C0014000C0054000000A402E2E5C4C80
:101C100069627261726965735C4C43503137363862
:101C20005F5374645065726970685F447269766569
:101C3000725C736F757263655C6C70633137787852
:101C40005F6932632E6300003C0000100420A8612D
:101C50000820A86153E0206950B1D4E905108842FA
:101C600006D2A868A26921698854A069401CA061B5
:101C7000D4E90501401E814202D20420286001E01F
:101C80000420A8610820A86139E0206950B1D4E996
:101C90000510884206D2A868A26921698854A06903
:101CA000401CA061606A40F4806060621BE00AE052
:101CB000FFE7606A40F40070606205E0606A40F42B
:101CC0008070606200BF00BFD4E90710884209D26B
:101CD0000020E060202028600C20A861206A401CC1
:101CE00020620BE000BF00212846FFF7B3FE284624
:101CF000FFF7BAFD0120F74941F8260000BF00BFF9
:101D000000BFE7E62DE9F04104462046FFF788FDD5
:101D10008046F14850F83850606800F0F806AE612F
:101D2000F82E03D10820A061BDE8F08106F007007D
:101D3000002868D1F0100C38142864D2DFE800F0D5
:101D40000F631063152816292C4763485A63636391
:101D50006363630A042020600820A0615FE000BF85
:101D6000042020600820A06159E000BFD5E90410DC
:101D7000884208D2E86830B1A0686A69E968885486
:101D80006869401C6861042020600820A06146E06A
:101D900000BF0820A06142E000212046FFF75AFE64
:101DA0000820A06147030FE0206800F0080020B180
:101DB00001212046FFF74EFE07E07F1E27B9A869E4
:101DC00040F48060A8611FE0EEE700BF27E000BF9D
:101DD000D5E90110884208D2286830B1A96828687E
:101DE000405CA060A868401CA86004202060082017
:101DF000A06114E0042020600820A061A86940F4DC
:101E00008060A86100E000BF00212046FFF722FEAD
:101E10002C20A0610120B14941F8280000BF00BF7B
:101E200000BF81E72DE9F84306460C461746D4F873
:101E30000480D4F810900020E060A0616062002F60
:101E40007ED1206200BFD4F80480D4F81090002026
:101E5000E060A06100253046FFF7F5FC0546082D3F
:101E60000BD0102D09D0206A401C2062D4E9071045
:101E7000884201D96562ABE0E5E7A068A0B360687D
:101E800090B320784006010E3046FFF7F8FC054677
:101E9000182D0BD0206A401C2062D4E9071088421C
:101EA00003D945F40070606292E0CCE718E098F83E
:101EB00000103046FFF7E3FC0546282D0BD0206AC2
:101EC000401C2062D4E90710884203D945F4007011
:101ED00060627DE0B7E708F10108E068401CE0605F
:101EE000D4E902108842E2D3A068B8B16068A8B112
:101EF000606998B1206988B13046FFF7A4FC0546B7
:101F0000082D0BD0102D09D0206A401C2062D4E986
:101F10000710884201D965625AE094E76069002899
:101F200050D0206900284DD02078012202EB4000DB
:101F3000C1B23046FFF7A3FC0546402D0DD000E0AE
:101F40004BE0206A401C2062D4E90710884203D984
:101F500045F4007060623BE075E72FE0D4E90501CD
:101F6000401E814211D2012269463046FFF79CFC97
:101F70000546502D1BD0206A401C2062D4E9071072
:101F8000884201D9656223E05DE700226946304658
:101F9000FFF78AFC0546582D09D0206A401C2062B4
:101FA000D4E90710884201D9656211E04BE79DF83A
:101FB000000009F8010BA069401CA061D4E90510DC
:101FC0008842CBD33046FFF74FFC0120BDE8F883B1
:101FD0003046FFF749FC0020F8E7012F1AD13046C0
:101FE000FFF71EFCC0B200903B489DF8001040F87F
:101FF0003140002038499DF8002001EBC2014860C3
:102000000820B0612020306001213046FFF722FD1A
:102010000120DBE70020D9E72DE9F84F04460D4603
:102020001646D5F80090D5F80CA00020A86068618D
:10203000A861002E6FD1042020602820A06100201C
:102040000090834675E0206800F00800002867D003
:1020500000200090606800F0F80707F007000028F3
:102060005AD1F8100C38142856D2DFE800F00F557A
:102070001055152716282B39553A4B55555555559A
:10208000550A042020600820A06148E000BF042019
:1020900020600820A06142E000BFD5E9041088421A
:1020A00007D2E86828B1A0680AF8010B6869401CEB
:1020B0006861042020600820A06130E000BF082093
:1020C000A0612CE00820A061012000904FF0000BDF
:1020D00025E00000540000103C00001060000010DB
:1020E00000BFD5E90110884207D2286828B119F845
:1020F000010BA060A868401CA86004202060082094
:10210000A0610CE0042020600820A0610120009064
:102110004FF0000B03E01AE00820A06112E008E095
:10212000009830B158460BF1010BB0F5803F00D953
:1021300000E088E70420A06147F48060A8610120E6
:10214000BDE8F88F0420A061AF610020F8E7012E00
:1021500015D12046FFF764FB8046934840F838507D
:102160000120914901EBC80148600420206028202B
:10217000A06101212046FFF76DFC0120E0E700206F
:10218000DEE770B504460D468848844205D088488D
:10219000844202D08748844200D105E040F2A14148
:1021A000AFF2985000F012FD2878002803DB287861
:1021B000032800DC05E040F2A241AFF2B05000F08D
:1021C00005FDA87810B1A878012800D105E040F2FB
:1021D000A341AFF2C85000F0F9FCA878012800D163
:1021E00000E00020697840EA4100C6B2287830B1AA
:1021F00001280AD002280ED0032818D111E0E66089
:10220000E87800F0FE00206311E02662E87800F034
:10221000FE0060630BE06662E87800F0FE00A063F9
:1022200005E0A662E87800F0FE00E06300BF00BFB2
:1022300070BD70B504460D4616465C48844205D014
:102240005B48844202D05B48844200D105E040F202
:10225000D541AFF2486000F0B9FC022D00D000BFBC
:1022600000BF0EB1012E00D105E040F2D741AFF220
:10227000646000F0ABFC012E03D1E0692843E0610B
:1022800004E0E0690721A9430840E06170BD70B532
:1022900004460D464548844205D04548844202D054
:1022A0004448844200D105E040F2F141AFF2A4601D
:1022B00000F08CFC0DB1012D00D105E040F2F2419F
:1022C000AFF2B86000F082FC012D08D1E06940F067
:1022D0000100E061042020602820A06105E0E069A1
:1022E00000F00600E0612C20A06100203249086067
:1022F00070BD10B504462D48844205D02C48844258
:1023000002D02C48844200D105E040F21451AFF2D3
:10231000047000F05BFCE06AC0B210BD30B503464B
:10232000002008249C61DC6A234D2D684C55224C0A
:102330002468641C204D2C602C462468944200D3F1
:10234000012030BD70B505462846FFF769FA0446FE
:102350001A4850F824600020184941F824003046FB
:1023600070BD70B505462846FFF75AFA0446144872
:1023700050F824600020124941F82400304670BD16
:1023800000F01F02012191404209920002F1E02277
:10239000C2F80011704700F01F0201219140094A64
:1023A000430942F8231070473C00001000C0014070
:1023B00000C0054000000A40040000105400001056
:1023C0006000001080E100E030B58DB00025FE48CF
:1023D00000788DF80000012406E0601EFB4911F82A
:1023E00020000DF80400641CF74800688442F4DD06
:1023F000F5480268521C6946002001F03DFE054682
:10240000012D00D104E02C22F1A1F5A002F02AF860
:102410000DB030BD30B58DB00025322269460020A8
:1024200001F054FE0546012D00D104E03522E8A15B
:10243000EBA002F017F89DF80000E34908600024C3
:1024400006E0601C1DF80000E04941F82400641C0F
:10245000DD4800688442F4DBDB480068E549086039
:102460000DB030BD1CB5E448006B20F40070E249AB
:10247000086301208DF8000009208DF8010000207C
:102480008DF8020003208DF8030000208DF8040071
:102490006846FDF713FFD848006920F00060D64970
:1024A000086100208DF800001B208DF8010001203C
:1024B0008DF8020000208DF803008DF804006846B6
:1024C000FDF7FCFECC48006920F08050CA49086145
:1024D00000208DF800001C208DF8010001208DF8EF
:1024E000020003208DF8030000208DF804006846E8
:1024F000FDF7E4FEC048006920F00800BE4908610D
:1025000000208DF8000003208DF8010000208DF8D8
:10251000020003208DF8030000208DF804006846B7
:10252000FDF7CCFE012251021046FEF717F90122F9
:1025300008210020FEF712F91CBD10B5FFF792FF2D
:10254000AE4801F08DFD01F0E7FB01F03BFD10BD51
:102550001FB51F2001220223CDE901200093039023
:102560004FF4A573FA220021084601F0A8F91FBD17
:1025700010B501F031FB01F0B3FCA148006800B9CF
:1025800010BD01F0FAFB91489E49096850F82100FE
:102590009B490968884211D19A480068401C9949B2
:1025A00008600020984908609648006891490968C9
:1025B000884206DB07209549086002E0082093491D
:1025C000086000BFDCE710B58A480068322806D1F1
:1025D00001208F49087008208C49086010BDFDF764
:1025E000C9FD0446C01704EB90708010A4EB800076
:1025F00030B101280BD0022810D003281CD114E0E0
:10260000032072497B4A126841F8220014E001213C
:102610006E48784A126840F822100DE002206B499B
:10262000744A126841F8220006E004216748714AA2
:10263000126840F8221000BF00BF6E480068401CBE
:102640006C49086000BFC9E71FB504465F4850F8F1
:102650002400012806D0022814D0032832D00428F0
:1026600040D11FE04FF6E070002101220223CDE9A6
:102670000032CDE902106E231A463C210A2001F0F7
:102680001EF930E04FF4FC60002101220223CDE965
:102690000032CDE902106E231A463C21782001F069
:1026A0000EF920E047F6FF70002101220223CDE958
:1026B0000032CDE902106E231A46AA210A2001F049
:1026C000FEF810E04FF47840002101220223CDE90A
:1026D0000032CDE902106E231A46AA21782001F0BB
:1026E000EEF800E000BF00BF1FBD1FB537484549E9
:1026F000096850F82100012806D0022815D00328C7
:1027000035D0042844D121E04FF6E0704FF6FF7138
:1027100001220223CDE90032CDE902106E231A46D0
:102720003C210A2001F0CBF833E04FF4FC604FF677
:10273000FF7101220223CDE90032CDE902106E23A0
:102740001A463C21782001F0BAF822E047F6FF70E3
:102750004FF6FF7101220223CDE90032CDE90210CC
:102760006E231A46AA210A2001F0A9F811E04FF4BD
:1027700078404FF6FF7101220223CDE90032CDE906
:1027800002106E231A46AA21782001F098F800E082
:1027900000BF00BF1FBD10B5FFF715FF002019498E
:1027A000086010BD10B517480068124909688842D2
:1027B0003FDB14490968481EFFF746FF13480068CD
:1027C00005282DD1062025E0340000108C000010D3
:1027D0002E2E5C557365725C6D61696E2E63000010
:1027E000726573756C74203D3D20535543434553CA
:1027F000530000003000001000C0092000C001405C
:102800000C0000102C0000101C0000101000001024
:1028100029000010EE4908600020EE49086002E03F
:102820000120EB4908600020EB490860EB49087083
:1028300010BDEB48E849096850F82100E9490860F3
:10284000E5480068002804DDE3490968481EFFF7F1
:10285000FBFEFFF74AFF01F090FADF480068401CDA
:10286000DD49086000BFE3E71FB54FF6E0700021C7
:1028700001220223CDE90032CDE902106E231A466F
:102880003C210A2001F01BF84FF4FC6000210122DA
:102890000223CDE90032CDE902106E231A463C2115
:1028A000782001F00CF847F6FF7000210122022386
:1028B000CDE90032CDE902106E231A46AA210A2082
:1028C00000F0FDFF4FF47840002101220223CDE902
:1028D0000032CDE902106E231A46AA21782000F0BA
:1028E000EEFF1FBD38B5FFF733FEBFA1C34801F0AF
:1028F00085FC04461F204FF6FF73C04A0A21009052
:10290000142000F088FFFFF7AFFF38BD38B5FFF7A0
:1029100081FDFFF71DFEBAA1B84801F06FFC044627
:102920001F204FF6FF73B54A0A210090142000F0D3
:1029300072FFB848B8A10268B04801F05FFC0546D4
:102940001F204FF6FF73AD4A1E210090142000F0A7
:1029500062FFFFF789FF00209F490860AF490860C8
:1029600038BD10B50020AE490860FFF7BBFFFFF788
:102970002AFE10BD7FB5FFF7EBFD4FF6E07000219A
:1029800001220223CDE90032CDE902106E23DC22C0
:102990003C210A2000F093FFA2A1984801F02EFCF0
:1029A00004464FF6E0700023944A5021009019200D
:1029B00000F031FF4FF4FC60002101220223CDE939
:1029C0000032CDE902106E23DC22AA210A2000F099
:1029D00076FF9AA1894801F011FC05464FF4FC608E
:1029E0000023864ABE210090192000F014FF7FBD0D
:1029F00010B501F0F1F896480088B0F5167F1ADDA1
:102A000093480088B0F5616F15DA92480088B0F5F8
:102A1000FA6F10DD8F48008840F6B83188420ADA34
:102A20008B4909888B4A1288881801F0FDFC002028
:102A30006749086016E086480088B0F5167F11DD0A
:102A400083480088B0F5616F0CDA82480088B0F5E1
:102A50002F7F07DD7F480088B0F5E16F02DA0320A1
:102A60005B49086010BD38B55D485B49096850F89E
:102A700021005C49096888421CD077A15F4801F0B9
:102A8000BDFB04461F204FF6FF735C4A0A210090ED
:102A9000142000F0C0FE62480068401E5D490968CD
:102AA00088421ADD5E480068401E5A490860FFF7F8
:102AB0008BFC12E06FA1514801F0A0FB04461F20DF
:102AC0004FF6FF734D4A0A210090142000F0A3FE38
:102AD000322050490860FFF777FC38BD00BF00BFC7
:102AE000FFF72BFD00F0EFF900F074FFFFF792FC09
:102AF0006BE0374800680A2866D2DFE800F01C0562
:102B00000B1622232F494F58FFF734FF022030497C
:102B1000086059E03148007830B1FFF769FF0020C4
:102B20003E4908602D4908704EE0FFF7EFFE042093
:102B30002749086048E0FFF714FF05202449086092
:102B400042E000BF50480068401C30B9334800687C
:102B5000B0F5FA6F01DBFFF725FE35E01F4800787E
:102B600060B149480068401C40B92C480068C8283A
:102B700001DDFFF7FDFC00201849087015480068CA
:102B800049F64041884202DB0820114908601BE0F9
:102B9000FFF701FE05200E49086015E0FFF763FF0F
:102BA00009200B49086000201C4908600CE01B4804
:102BB000006844F62061884205DD01200449086070
:102BC00000201649086000BF00BF92E700BFFEE783
:102BD000100000101C0000102C0000102800001035
:102BE0008C0000100C00001052656A6F75657A2029
:102BF0006C612073657175656E6365006C00001013
:102C0000566F696369206C65206869676873636FD4
:102C100072650000340000102564000018000010E8
:102C200030000010436F6D6D656E63657220756EC8
:102C3000652070617274696500000000566F6972EA
:102C4000206C65206869676873636F7265000000B7
:102C5000080000100A0000105475207427657320C6
:102C600074726F6D706520646520746F756368653C
:102C70002021000054752065732074726F702066E7
:102C80006F7274202100000024000010000200BFB9
:102C9000011EA0F10100FBD1704710B501224FF4D5
:102CA00070010020FDF7E4FD01224FF06071104635
:102CB000FDF7DEFD4FF470010020FDF7E3FD4FF05E
:102CC00060710120FDF7DEFD10BD10B5222001F07E
:102CD0006FFD10BD10B504464FF48000FE49C86179
:102CE00080108861204601F007FD4FF40000FA498A
:102CF000C861012001F052FD4FF40000F6498861DF
:102D00004010886110BDF5480088704730B5014615
:102D100001F01F04C1F34513CA0AE50205EB431590
:102D20001544A8B230BD70B504460D46EB48008886
:102D300048F68911884207D1A1B24E2001F058FD12
:102D4000A9B24F2001F054FDA1B2202001F050FDA6
:102D5000A9B2212001F04CFD70BD70B504460D46AE
:102D600029462046FFF7DFFFFFF7AFFF01F0DAFC4F
:102D7000064601F0D7FC0646304670BD70B50546E4
:102D8000002400210846FFF7CEFFFFF79EFF00BF9B
:102D900003E02846FFF79EFF641CB4F5963FF8D386
:102DA00070BD10B5CD48008848F68911884205D11C
:102DB00046F23001112001F01BFD04E041F2300128
:102DC000032001F015FD00210846FFF7ACFFFFF7D7
:102DD0007CFF45F25550FFF77DFF4AF6AA20FFF72A
:102DE00079FF00210846FFF79EFF10BD2DE9F04155
:102DF000BA48008848F68911884204D041F230016F
:102E0000032001F0F5FC002500210846FFF78BFFA9
:102E1000FFF75BFF002405E02846FFF75BFF681C17
:102E200085B2641CB4F5963FF6D30025AB48008804
:102E300049F22031884209D0A8480088491D8842BB
:102E400004D0A6480088C91C884219D1002413E088
:102E500000260EE021463046FFF77FFF0746FFF7CA
:102E600055FF29466A1C95B2884201D0BDE8F08121
:102E7000761CF02EEED3641CB4F5A07FE8D320E0DE
:102E80009648008844F23151884205D09348008822
:102E900048F68911884214D100240FE000260AE088
:102EA00021463046FFF759FF29466A1C95B28842F1
:102EB00000D0DBE7761CF02EF2D3641CB4F5A07FC3
:102EC000ECD300BFD2E770B5FFF7E7FE40F2DC506D
:102ED000FFF7DCFE0024204601F06AFC01F022FC32
:102EE000054600BF7D480580008844F23151884284
:102EF00021D07A48008847F2837188421BD07748F6
:102F0000008849F22031884215D074480088491D54
:102F1000884210D071480088C91C88420BD06F4885
:102F20000088B0F5134F06D06C48008848F6891128
:102F3000884200D070BD6948008849F22531884236
:102F400004D066480088C91C88427DD11021E72042
:102F500001F04EFC0121002001F04AFC4FF4807189
:102F6000012001F045FC4FF4E061022001F040FC3B
:102F700041F22801032001F03BFC0021042001F074
:102F800037FC40F20721082001F032FC0021092023
:102F900001F02EFC00210A2001F02AFC01210C2066
:102FA00001F026FC00210D2001F022FC00210F2061
:102FB00001F01EFC0021102001F01AFC0721112055
:102FC00001F016FC0021122001F012FC0021132058
:102FD00001F00EFC0F20FFF759FE41F29051102036
:102FE00001F006FC40F22721112001F001FC0F2026
:102FF000FFF74CFE9C21122001F0FAFB0F20FFF797
:1030000045FE4FF4C851132001F0F2FB2321292083
:1030100001F0EEFB0E212B2001F0EAFB0F20FFF761
:1030200035FE0021202001F0E3FB0021212001F0EA
:10303000DFFB0F20FFF72AFE0721302001F0D8FB2D
:1030400040F20771312000E08BE001F0D1FB062156
:10305000322001F0CDFB40F20471352001F0C8FBB5
:1030600041F60471362001F0C3FB0421372001F042
:10307000BFFB0021382001F0BBFB40F20671392074
:1030800001F0B6FB40F201713C2001F0B1FB0F21D1
:103090003D2001F0ADFB0F20FFF7F8FD002150208F
:1030A00001F0A6FBEF21512001F0A2FB00215220EC
:1030B00001F09EFB40F23F11532001F099FB4FF4C9
:1030C0002741602001F094FB0121612001F090FB79
:1030D00000216A2004E0000000C009203800001030
:1030E00001F086FB0021802001F082FB002181207D
:1030F00001F07EFB0021822001F07AFB0021832079
:1031000001F076FB0021842001F072FB0021852074
:1031100001F06EFB1021902001F06AFB002192204B
:1031200001F066FB0321932001F062FB4FF48871EC
:10313000952001F05DFB0021972001F059FB002153
:10314000982001F055FB40F23311072001F050FBAD
:103150000021202001F04CFB0021212001F048FB40
:1031600012E3FC48008849F22031884204D0F94833
:103170000088B0F5134F7DD10021084601F038FBDF
:103180000021012001F034FB4FF4E061022001F046
:103190002FFB41F21801032001F02AFB002104203B
:1031A00001F026FB40F20221082001F021FB002162
:1031B000092001F01DFB00210A2001F019FB01216B
:1031C0000C2001F015FB00210D2001F011FB002166
:1031D0000F2001F00DFB0F20FFF758FD40F2011109
:1031E000072001F005FB0F20FFF750FD4FF486513B
:1031F000102001F0FDFA0721112001F0F9FA4FF437
:103200008871122001F0F4FA4FF43061132001F0BC
:10321000EFFA0021292001F0EBFA44F210012B20F3
:1032200001F0E6FA0021502001F0E2FAEF215120EE
:1032300001F0DEFA0021522001F0DAFA40F23F11EB
:10324000532001F0D5FA4FF42741602001F0D0FA65
:103250000121612001F0CCFA00216A2001F0C8FAB6
:103260000021802001F0C4FA0021812001F0C0FA81
:10327000002100E02DE0822001F0BAFA0021832035
:1032800001F0B6FA0021842001F0B2FA0021852075
:1032900001F0AEFA1021902001F0AAFA002192204C
:1032A00001F0A6FA0121932001F0A2FA4FF48871EF
:1032B000952001F09DFA0021972001F099FA002154
:1032C000982001F095FA40F27311072001F090FA6E
:1032D0005AE2A048008844F2315188427DD1012150
:1032E000002001F085FA4FF4C561102001F080FA4A
:1032F0000621122001F07CFA40F63221132001F061
:1033000077FA4021112001F073FA5021152001F0C5
:103310006FFA1621122001F06BFA0F20FFF7B6FCAE
:1033200045F26061102001F063FA0F20FFF7AEFC58
:1033300042F64E21132001F05BFA0021012001F03A
:1033400057FA4FF44071022001F052FA41F2300175
:10335000032001F04DFA40F20221082001F048FA62
:1033600000210A2001F044FA0021302001F040FA47
:1033700040F20241312001F03BFA4FF483713220D8
:1033800001F036FA4FF4E061332001F031FA4FF4E6
:103390008271342001F02CFA40F20131352001F025
:1033A00027FA40F20771362001F022FA40F2053187
:1033B000372001F01DFA4FF40271382001F018FA9D
:1033C00040F60B71392001F013FA0F20FFF75EFC75
:1033D0000221412001F00CFA00E037E04FF42741D0
:1033E000602001F005FA0121612001F001FA40F2AC
:1033F0001911902001F0FCF94FF48571922001F031
:10340000F7F90421932001F0F3F94FF48071A02023
:1034100001F0EEF90F20FFF739FC0F20FFF736FC23
:103420000F20FFF733FC0F20FFF730FC40F2331181
:10343000072001F0DDF90F20FFF728FC0021A02074
:1034400001F0D6F91420FFF721FC9DE141480088E6
:1034500047F2837188427CD10121FF2001F0C8F935
:103460000821F32001F0C4F94FF48071012001F02C
:10347000BFF94FF4E061022001F0BAF941F23001E6
:10348000032001F0B5F940F20231082001F0B0F953
:1034900040F20721082001F0ABF90021092001F0DA
:1034A000A7F900210A2001F0A3F90021102001F062
:1034B0009FF90521112001F09BF90021122001F054
:1034C00097F90021132001F093F91420FFF7DEFB98
:1034D00041F2B021102001F08BF91420FFF7D6FB48
:1034E0000721112001F084F91420FFF7CFFB8B2175
:1034F000122001F07DF91420FFF7C8FB4FF4B851FA
:10350000132001F075F91420FFF7C0FB22212920B8
:1035100001F06EF90021302001F06AF940F20771E4
:10352000312001F065F940F20551322001F060F9D7
:1035300040F20711352001F05BF90821362001F037
:1035400057F90021372001F053F940F202213820C9
:1035500002E040E03800001001F04AF94FF48371B6
:10356000392001F045F940F202213C2001F040F9F8
:103570004FF481613D2001F03BF91420FFF786FBF9
:103580000021502001F034F9EF21512001F030F9F1
:103590000021522001F02CF940F23F11532001F09C
:1035A00027F94FF42741602001F022F90121612021
:1035B00001F01EF93321902001F01AF90B212B2084
:1035C00001F016F940F23311072001F011F914202F
:1035D000FFF75CFBD8E07148008848F68911884203
:1035E000F8D12121072001F003F90121002001F089
:1035F000FFF82321072001F0FBF80021102001F043
:10360000F7F840F6B830FFF741FB3321072001F00F
:10361000EFF846F27001112001F0EAF84FF4C061B2
:10362000022001F0E5F840F60401032001F0E0F883
:1036300000210C2001F0DCF840F60C010D2001F017
:10364000D7F84FF424510E2001F0D2F8B8211E20F3
:1036500001F0CEF842F63F31012001F0C9F8002117
:10366000102001F0C5F80021052001F0C1F800216B
:10367000062001F0BDF84EF61C71162001F0B8F8D6
:103680000321172001F0B4F840F23321072001F0A4
:10369000AFF8C0210B2001F0ABF800210F2001F0A2
:1036A000A7F80021412001F0A3F80021422001F0F9
:1036B0009FF80021482001F09BF840F23F1149207B
:1036C00001F096F800214A2001F092F800214B20E9
:1036D00001F08EF84FF46F41442001F089F8002189
:1036E000452001F085F840F23F11462001F080F8B6
:1036F00040F20771302001F07BF84FF40171312066
:1037000001F076F84FF40171322001F071F840F2C7
:103710000251332001F06CF840F20751342001F0DF
:1037200067F84FF40171352001F062F84FF4017130
:10373000362001F05DF840F20251372001F058F8D0
:1037400040F202313A2001F053F840F202313B20BE
:1037500001F04EF80021232001F04AF80021242036
:1037600001F046F84FF40041252001F041F8002116
:103770004F2001F03DF800214E2001F039F8FFF70D
:1037800010FB1F20FFF7FAFAFFF70BFBFFF72EFBEA
:103790001F20FFF7F3FA00BFFFF7CCBB3800001083
:1037A0002DE9F84F05460E46174698460095B14656
:1037B00000242CE0A7F12000244901EB001010F8B0
:1037C00004A049460098FFF7AEFA09F101001FFA7C
:1037D00080F9FFF77AFA4FF0000B13E00AF080004F
:1037E00020B11FFA88F0FFF775FA03E00A9988B252
:1037F000FFF770FA4FEA4A604FEA106A0BF10100D6
:1038000000F0FF0BBBF1080FE8DB601CC4B2102C0A
:10381000D0DBBDE8F88F2DE9F84305460E46144687
:103820001F46DDF820800BE0CDF8008022783B4673
:1038300031462846FFF7B4FF641C05F1080085B245
:1038400020780028F0D1BDE8F8830000324C000059
:103850002DE9F05F81460D4617469846DDE90AAB33
:10386000BAF1760F14D12C460EE021464846FFF7F8
:103870005AFAFFF72AFA002603E05846FFF72AFA19
:10388000761C4645F9D9641CE819A042EDD214E033
:103890002C460EE021464846FFF745FAFFF715FA99
:1038A000002603E05846FFF715FA761CBE42F9D908
:1038B000641C05EB0800A042ECD2BDE8F09F2DE9A6
:1038C000FC5F0746884691461D46DDE90E4BDDE963
:1038D0000C6ABAF1010F08D168202B464A464146CE
:1038E000CDE9000B3846FFF7B3FF682033464A4660
:1038F0004146CDE900043846FFF7AAFF762007EBE2
:103900000901CDE90004881B33462A464146FFF7EA
:103910009FFF6820CDE9000408EB0500811B3346BA
:103920004A463846FFF794FF762033462A464146FA
:10393000CDE900043846FFF78BFFBDE8FC9F00008F
:1039400011B581B00120EB49086101A8086000228F
:10395000E948FDF735FDC4B22CB1E649C1F808D0FD
:103960009DF800001CBD0020FCE700B589B00020D8
:103970008DF81C0002208DF81E0000208DF81F001D
:103980008DF8200007208DF81D0007A8FCF796FC95
:1039900008208DF81D0007A8FCF790FC09208DF881
:1039A0001D0007A8FCF78AFC082001900020029067
:1039B000039004900590D148069001A8FDF76AFC99
:1039C00001A9CD48FDF705FC0121CB48FDF76DFCB1
:1039D00009B000BD1CB500208DF802008DF8040070
:1039E0008DF8030013208DF8010000208DF80000F1
:1039F0006846FCF763FC00224FF400211046FCF7F8
:103A0000ADFE0122D1040020FCF7DBFE01224021A3
:103A10000020FCF7A3FE40210020FCF7B3FEFFF7D7
:103A2000A4FF012240210020FCF798FE4021002045
:103A3000FCF7B2FE8020FFF783FF01224021002027
:103A4000FCF78CFE40210020FCF79CFE1CBD2DE9FC
:103A5000F04196B0B5E000243EE001224021002074
:103A6000FCF77CFE40210020FCF796FED020FFF7FB
:103A700067FF0020FFF764FF4006000D11A921F841
:103A800014009020FFF75CFF11A931F8141041EAEF
:103A9000E00011A921F814000020FFF751FF4006B3
:103AA000000D0CA921F814000020FFF749FF0CA914
:103AB00031F8141041EAE0000CA921F8140080202C
:103AC000FFF73EFF012240210020FCF747FE402186
:103AD0000020FCF757FE641C0A2CBED34FF6FF7380
:103AE0001D460026002700210022002032E00DF1B3
:103AF000440C3CF810C09C4503D20DF1440C3CF83A
:103B000010300DF1440C3CF810C0B44503D90DF150
:103B1000440C3CF810600DF1440C3CF810C06144BA
:103B20000DF1300C3CF810C0AC4503D20DF1300C57
:103B30003CF810500DF1300C3CF810C0BC4503D9D6
:103B40000DF1300C3CF810700DF1300C3CF810C049
:103B50006244401C0A28CAD3A1EB030CACEB06015B
:103B6000A2EB050CACEB0702C1F3CF0CDFF89081A0
:103B7000A8F800C0C2F3CF0CDFF88881A8F800C015
:103B80005F48028860A107A800F038FB4046028821
:103B90005FA102A800F032FB1F2047F6FF7307AABF
:103BA0004FF4917100900020FFF735FE1F2047F67B
:103BB000FF7302AA4FF4917100907820FFF72BFE5B
:103BC00000BF0020FCF7F2FD00F4002000283FF4C5
:103BD00042AF16B0BDE8F0812DE9F0418AB0002473
:103BE0003BE0012240210020FCF7B8FD40210020ED
:103BF000FCF7D2FDD020FFF7A3FE0020FFF7A0FEC8
:103C00004006000D05A921F814009020FFF798FE4A
:103C100005A931F8141041EAE00005A921F81400C3
:103C20000020FFF78DFE4006000D2DF81400002047
:103C3000FFF786FE3DF8141041EAE0002DF814006D
:103C40008020FFF77DFE012240210020FCF786FD49
:103C500040210020FCF796FD641C0A2CC1D34FF6CE
:103C6000FF731D460026002700210022002028E0C7
:103C70000DF1140C3CF810C09C4503D20DF1140C4E
:103C80003CF810300DF1140C3CF810C0B44503D9C9
:103C90000DF1140C3CF810600DF1140C3CF810C040
:103CA00061443DF810C0AC4501D23DF810503DF8DC
:103CB00010C0BC4501D93DF810703DF810C06244F9
:103CC000401C0A28D4D3A1EB030CACEB0601A2EBF9
:103CD000050CACEB0702C1F3CF0CDFF82480A8F889
:103CE00000C0C2F3CF0CDFF81C80A8F800C00AB0F7
:103CF000BDE8F0815401001000000340801A060066
:103D0000080000100A000010583A202530346400E2
:103D1000593A20253034640000B585B001208DF873
:103D20000C00049003AA00214FF04020FCF7D8FFBC
:103D300000208DF8000001208DF801008DF80300AF
:103D400000208DF802008DF80400322002906946B0
:103D50004FF04020FDF7C2F80120012181404209C7
:103D6000920002F1E022C2F8001100BF01214FF0E1
:103D70004020FDF775F805B000BD4B480068401CB9
:103D800010B900204849086070474848406B00F46B
:103D90000070B0F5007F04D14FF400704349C86350
:103DA00003E04FF400704149886370472DE9F04704
:103DB0003F480068401C3E4908603E480068401C7F
:103DC0003C49086038480068401C002865D03648E7
:103DD0000068401C344908600846006842F21071CF
:103DE00088420ADB4FF0FF302F490860002031493C
:103DF000086031490860BDE8F0872F480068012855
:103E00000FD0022804D0032808D004280CD102E0E7
:103E100040F2275415E040F2D95412E040F29744A2
:103E20000FE040F217440CE04FF0FF301E490860ED
:103E300000202049086000214FF04020FCF7F4FEEC
:103E4000D9E700BF1D480068401C1C490860204697
:103E500000F0A6FD824651464FF07E5000F0DEFC99
:103E60008046174900F0E8FD0746164900F0D6FCE9
:103E700006464FF0804100F0D1FC05460F4800682F
:103E800000F08EFD8146294600F0A2FE04D80020F5
:103E90000A490860FFF779FF00BF00214FF040207A
:103EA000FCF7C2FE00BFA6E72400001000C00920F6
:103EB0001C000010180000100C000010140000106E
:103EC000002474490000484270B50446384803880D
:103ED0003848028838A1204600F090F9054670BDA8
:103EE00034480088B0F5167F13DD32480088B0F5FD
:103EF000FA6F0EDA2E480088B0F5FA6F09DD2C480B
:103F0000008840F6B831884203DA01202C49086065
:103F10004DE02848008840F63401884213DD2548EA
:103F20000088B0F5616F0EDA21480088B0F5FA6FAD
:103F300009DD1F48008840F6B831884203DA0220C4
:103F40001F49086033E01B480088B0F5167F12DD7A
:103F500018480088B0F5FA6F0DDA15480088B0F5FA
:103F60002F7F08DD12480088B0F5E16F03DA0420E6
:103F7000134908601BE00F48008840F6340188426E
:103F800012DD0C480088B0F5616F0DDA0848008832
:103F9000B0F52F7F08DD06480088B0F5E16F03DA41
:103FA00003200749086002E00020054908607047C7
:103FB0000A0000100800001025643B202564000062
:103FC0000C00001000B585B001208DF80C000490A5
:103FD00003AA00211F48FCF783FE00208DF8000093
:103FE00001208DF801008DF8030000208DF80200FB
:103FF0008DF804001420029069461648FCF76EFF05
:104000000220012181404209920002F1E022C2F81F
:10401000001100BF01210F48FCF722FF05B000BDD1
:1040200010B50D48406900F4002040B901200B494B
:1040300008700022C1041046FCF7C3FB04E0012213
:10404000D1040020FCF7BDFB00210248FCF7ECFD89
:1040500010BD00000080004000C0092028000010B2
:1040600070B50546274C21462748FDF764FC012121
:104070002548FDF7CCFC70BD2DE9F04198B0054610
:104080000F4616464FF00008E8B28DF800000124F4
:1040900004E0601E385C0DF80400641CB442F8DDD6
:1040A000CDF838D0701C0F90C5F3022040F05000BE
:1040B0000D9000201190129000220DA91248FDF7DA
:1040C000B1FE8046404618B0BDE8F081F0B58DB035
:1040D00004460D4616460027E0B2019001A8039061
:1040E00001200490C4F3022040F050000290069595
:1040F0000796002202A90448FDF794FE07463846B9
:104100000DB0F0BDA086010000C0014053EA020CD2
:1041100000F069802DE9F04B4FF00006002B1FBF27
:10412000B3FA83F503FA05F424FA05F65E4012BFEC
:104130001643B2FA82F502FA05F4C5F120051EBF56
:1041400022FA05FC44EA0C04203556EA044C4FEAF6
:10415000144418BF641C4FF000084FF0000990424F
:1041600071EB030C39D3002919BFB1FA81F701FAB9
:1041700007F6B0FA80F700FA07F6C7F120071EBF6E
:1041800020FA07FC46EA0C062037B6FBF4FCA7EB46
:104190000507103F07F01F0BCBF120060CFA0BFBB5
:1041A0002CFA06F644BFB3460026202FA4BF5E4675
:1041B0004FF0000B5BEA060C08BF4FF0010B19EB48
:1041C0000B09ABFB027C48EB0608C01B06FB02CCCC
:1041D0000BFB03CC71EB0C01C1E70B4602464146D9
:1041E0004846BDE8F08B13B54FF000004FF00001DA
:1041F000AFF30080BDE81C40704700000FB41CB551
:10420000084B06AA7B4469460090059800F0C9F95E
:10421000044600206946FCF768F820461CBC5DF89F
:1042200014FB0000E3C0FFFF70B504468569006819
:10423000C10601D5302600E02026C00707D070BD9A
:10424000D4E9012130469047206A401C20626D1E4F
:10425000F6D570BD70B5044685690078C00707D1F2
:1042600070BDD4E9012120209047206A401C2062C3
:104270006D1EF6D570BD00002DE9F0410646002404
:1042800010687529314616A510D0AFF300800028BC
:1042900002DA404213A507E031688A0701D512A56A
:1042A00002E0490704D511A5012401E0AFF3008025
:1042B00000210A2206F1240709E0B0FBF2FCB0FB62
:1042C000F2F302FB1C00303078541846491C0028D9
:1042D000F3D123462A463046BDE8F04100F002B94A
:1042E000000000002D0000002B0000002000000056
:1042F0002DE9F05F894604464FF0000ADFF824B14B
:10430000FB44C0F820A02046E168884700287DD003
:10431000252806D0D4E901219047206A401C20625C
:10432000F1E700255F462046E168884720280646D9
:1043300007DB312E05D2B81910F8200C08B105435F
:10434000F1E7A80701D525F00405C4F81CA0002753
:10435000C4F818A02A2E09D0304600F0C6F938B3A8
:1043600004EB8708303EC8F8186019E059F8041BC0
:10437000204604EB87029161E1688847012F0646D9
:1043800018D1E069002820DA25F020051DE0D8F8D2
:10439000180000EB800006EB40003038C8F8180029
:1043A0002046E1688847064600F09FF90028EED1D4
:1043B000012F0AD02E2E08D12046E16888477F1CA5
:1043C0000646022F45F02005C4DBA069002803DA69
:1043D000404245F00105A061E80701D025F0100535
:1043E000A6B1A6F14100192802D8203645F400658F
:1043F0004A463146204625604D46FBF7A1FE60B196
:10440000012807D0ED1D25F0070000E007E000F1CE
:10441000080978E705F1040975E730467AE7206A6C
:10442000BDE8F09F1E0F00000B4910B5A1F17C0202
:104430000A4CC2E93712372106E000EB104342F87C
:104440002130074B00FB03400B1EA1F10101F4DCFE
:1044500010BD0120E8E70000E8010010E119D66670
:10446000CD0D01000EB5054614460E4613A000F012
:10447000B6F8284600F0B3F816A000F0B0F83046C1
:1044800000F0ADF815A000F0AAF800218DF80B108F
:104490000A210DF10A008DF80A1008E094FBF1F2F0
:1044A00001FB124294FBF1F4303200F8012D002C94
:1044B000F4DC00F094F800F087F800002A2A2A20A3
:1044C000617373657274696F6E206661696C65648F
:1044D0003A2000002C2066696C6520002C206C6955
:1044E0006E6520002DE9F0470D4699469246044638
:1044F00000F124080168880604D5E06921F0100164
:10450000216000E00120A84201DD471B00E00027F8
:10451000A1697A1902EB0900081AA0612078C00687
:1045200002D42046FFF780FE002608E0D4E90121EE
:104530001AF806009047206A401C761C20624E45FF
:10454000F4DB2078C0060AD52046FFF76DFE06E0B2
:10455000D4E9012130209047206A401C2062381E97
:10456000A7F10107F4DC07E0D4E9012118F8050000
:104570009047206A401C2062281EA5F10105F3DC4B
:104580002046FFF767FE2078000602D50220BDE82E
:10459000F0870120FBE7000001694A1C02610878EE
:1045A000704700B58FB0CDE9013100210591054973
:1045B0007944CDE9031011466846FFF799FE0FB024
:1045C00000BD0000E5FFFFFF10B5002000F01EF861
:1045D000FBF7BFFDBDE81040012000F011B810B599
:1045E000044602E0641C00F004F820780028F9D1A9
:1045F00010BD08B569468DF800000320ABBE08BDAC
:1046000001491820ABBEFEE72600020010B500F0FD
:1046100037F8BDE8104000F02EB8754600F048F8B5
:10462000AE4605006946534620F00700854618B09F
:1046300020B5FBF7C7FDBDE820404FF000064FF066
:1046400000074FF000084FF0000B21F00701AC46C7
:10465000ACE8C009ACE8C009ACE8C009ACE8C009E6
:104660008D46704710B50446AFF300802046BDE884
:104670001040FBF779BD002801D0FFF7C1BF70479C
:1046800010B5002102A000F017F8012010BD0000B5
:10469000534947414252543A2041626E6F726D61F4
:1046A0006C207465726D696E6174696F6E000000D4
:1046B000004870475002001070B505460C460A20AD
:1046C00000E06D1CFFF795FF35B128780028F8D180
:1046D00002E0641CFFF78DFF14B120780028F8D1A8
:1046E000BDE870400A20FFF784BF30380A2801D2A5
:1046F00001207047002070470949096C41F0FF0113
:10470000074A11644FF0807191634900D1631146EB
:1047100048654FF400019163D16301125165704700
:1047200000C0092070B500254FF480001A49C86107
:1047300080108861C00088618010C861012000F08D
:104740002DF800BF1448006C20F0FF0012490864E7
:104750004FF08070C8634000C863322000F01EF83C
:104760000D48543004784FF000700B4988633220B4
:1047700000F014F8084890F8540040EA04244FF080
:1047800080700549886300BF2546C01088614000DD
:104790008861284670BD000000C0092008B500905F
:1047A00000BF00994A1E00920029FAD108BD0000FE
:1047B00010B504464FF480000C49C8618010C861F0
:1047C000400088612046FFF797FF4620FFF7E6FF8D
:1047D0004FF400000549C8610120FFF7DFFF4FF4E7
:1047E0000000024988614010886110BD00C00920A6
:1047F00070B505460C462846FFF7DAFF2046FEF75F
:1048000069FA70BD401058BFC0F14040491058BF10
:10481000C1F140418142EFF3008070474FF47F0CBB
:104820001CEAD0121EBF1CEAD11392EA0C0F93EAC5
:104830000C0F00F0858090EA010F48BF42F48072AF
:1048400040F4000C41F400002CF07F4120F07F4048
:1048500000B58142A2EB03020FF2081CACEB504EF4
:10486000C0F100009EF800E04FEA4E0E00FB0EFC87
:1048700038BF49004FEA2C1C02F5FA020CFB0EF37C
:104880004FEACE1E4FEA112C4FEAC1210EEB635EB8
:1048900042EB22420EFB0CFC4FEA1C5300FB0311BF
:1048A0004FEA112C4FEA01310EFB0CFC4FEADC4CB5
:1048B00000FB0C11C14228BF09184CEB03335DF813
:1048C00004EB10EB410143EBC250B2F57C0F38BF53
:1048D000704729D512F0F00F1CBF00F1C04000F066
:1048E00000407047008182838485868788898B8C0D
:1048F0008D8E8F919293959697999A9C9D9FA0A249
:10490000A3A5A7A8AAACAEB0B2B3B5B7B9BCBEC098
:10491000C2C5C7C9CCCED1D4D7D9DCDFE2E6E9EC39
:10492000F0F3F7FAFE0000004FEA400C0CF1807C37
:10493000BCF17E4F28BF7047B0F1C04000F043B9D2
:1049400090EA010F0CEAD11348BF42F4807262452D
:1049500038BF634507D213F47F0F16D080EA0100F9
:1049600000F00040704710B500F0E7F8097EFC3E0B
:1049700000F005B880EA010000F00040704780EACE
:10498000010000F0004000F01EB912F47F0F04BFD8
:104990000248704780EA010000F015B90000C07FAE
:1049A00010F0004148BF4042B0FA80F310FA03F221
:1049B000C3F19D030BD051EAC35101EB1220530602
:1049C00038BF704700F1010008BF20F001007047B8
:1049D00050EA010C00F113801CF5000F58BFBCF524
:1049E000000F01D48842704707D710F5000F58BF59
:1049F00011F5000F15D488427047894270471CF5A5
:104A0000000F04D5BCF5000FF7D5814270474FF079
:104A1000807C1CEB400F38BF1CEB410F01D2814260
:104A2000704710B500F089F8922449004FF000500B
:104A30004FF08051FFF7E6BE4FF47F0C1CEAD01216
:104A40001EBF1CEAD11392EA0C0F93EA0C0F00F080
:104A5000478090EA010F48BF42F480724FF0004C4B
:104A60004CEA00204CEA012102EB0302A0FB0113F7
:104A7000A2F50002002918BF43F001035B0028BF24
:104A80004FEA330342EB22425FEA132C4CEBC25055
:104A90002EBFBCEB436FB2F57C0F70474FEA036C3F
:104AA000BCF1004F08BF20F00100B2F57C0F38BF09
:104AB00070470BD582F0FF0212F5803FC8BF7047E8
:104AC00000F1C040D8BF00F00040704700F5000C76
:104AD0005FEA4C0C48BF7047B0F1C04000F073B8BB
:104AE00090EA010F0CEAD11348BF42F4807262458C
:104AF00038BF634504D280EA010000F000407047EF
:104B000010B500F01AF800BF8900013E00F007B8A8
:104B100000F009B85FEA410C5FEA1C6C08D080EA3B
:104B2000010000F050B85FEA400C5FEA1C6CF6D15F
:104B30004FF00040A0F5800070470EF1020E2EF0FD
:104B4000030E5EF8044B244204D44FEA4102B2F152
:104B50007F4F11D84FEA4003B3F17F4F0CD80ED1ED
:104B60004FEAD07CB2F17F4F0CEB4C0C0CF1020CF5
:104B700008BF4CEBD17C04E04FF0080C01E04FEA99
:104B8000D17C0CEB4C0324FA03F404F00704B4F1D9
:104B9000040C06D20EEB840CBDE810404CF0010C66
:104BA0006047DFE80CF0070802024FF00040A0F574
:104BB000800010BD0846420018BFD2F1807288BF45
:104BC00000F0004010BDFF2141EAD050C005704701
:104BD00051EA000C00F113801CF5000F58BFBCF522
:104BE000000F01D48142704707D711F5000F58BF5D
:104BF00010F5000F15D481427047894270471CF5AB
:104C0000000F04D5BCF5000FF7D5884270474FF070
:104C1000807C1CEB410F38BF1CEB400F01D2884257
:104C2000704780EA010081EA000180EA0100FFF795
:104C3000F8BE0000000000000000000000000000BE
:104C4000000000000000183C3C3C18180018180038
:104C50000000000000006666660000000000000022
:104C600000000000000036367F3636367F363600CC
:104C70000000000018183C666030180C06663C18EE
:104C8000180000000070D8DA760C18306E5B1B0E2E
:104C9000000000000000386C6C38606F66663B00F6
:104CA00000000000000018181800000000000000BC
:104CB0000000000000000C18183030303030181898
:104CC0000C00000000003018180C0C0C0C0C18180C
:104CD0003000000000000000361C7F1C3600000081
:104CE000000000000000000018187E1818000000E6
:104CF0000000000000000000000000001C1C0C1858
:104D00000000000000000000007E00000000000025
:104D10000000000000000000000000001C1C00005B
:104D2000000000000006060C0C181830306060000F
:104D300000000000001E333737333B3B331E0000BA
:104D400000000000000C1C7C0C0C0C0C0C0C000077
:104D500000000000003C6666060C1830607E000013
:104D600000000000003C6666061C0666663C00000B
:104D700000000000003030363636667F0606000040
:104D800000000000007E6060607C06060C78000079
:104D900000000000001C18307C666666663C00005F
:104DA00000000000007E060C0C18183030300000A7
:104DB00000000000003C6666763C6E66663C0000C3
:104DC00000000000003C666666663E0C1838000075
:104DD000000000000000001C1C0000001C1C000063
:104DE000000000000000001C1C0000001C1C0C182F
:104DF0000000000000060C18306030180C0600009F
:104E000000000000000000007E007E0000000000A6
:104E100000000000006030180C060C183060000024
:104E200000000000003C66660C181800181800000E
:104E300000000000007EC3C3CFDBDBCFC07F0000DB
:104E40000000000000183C6666667E66666600002C
:104E500000000000007C6666667C6666667C00007A
:104E600000000000003C666660606066663C000012
:104E70000000000000786C66666666666C7800006C
:104E800000000000007E6060607C6060607E00006A
:104E900000000000007E6060607C60606060000078
:104EA00000000000003C666660606E66663E0000C2
:104EB0000000000000666666667E66666666000044
:104EC00000000000003C181818181818183C0000C2
:104ED000000000001E0C0C0C0C0CCCCCCC7800009C
:104EE000000000000066666C6C786C6C6666000002
:104EF000000000000060606060606060607E000034
:104F000000000000006363776B6B6B6363630000FA
:104F100000000000006363737B6F676363630000DE
:104F200000000000003C666666666666663C00003F
:104F300000000000007C6666667C606060600000C7
:104F400000000000003C666666666666663C0C060D
:104F500000000000007C6666667C6C666666000089
:104F600000000000003C666030180C06663C000043
:104F700000000000007E18181818181818180000F3
:104F8000000000000066666666666666663C0000B5
:104F90000000000000666666666666663C180000F3
:104FA00000000000006363636B6B6B3636360000F5
:104FB000000000000066663418182C666666000063
:104FC0000000000000666666663C181818180000AD
:104FD00000000000007E06060C183060607E0000B5
:104FE00000000000003C30303030303030303030A5
:104FF0003C000000006060303018180C0C06060001
:1050000000000000003C0C0C0C0C0C0C0C0C0C0CEC
:105010003C0000183C66000000000000000000009A
:105020000000000000000000000000000000000080
:10503000FF000038180C0000000000000000000015
:10504000000000000000003C06063E66663E0000D0
:10505000000000000060607C66666666667C00009A
:10506000000000000000003C66606060663C0000DC
:10507000000000000006063E66666666663E0000AA
:10508000000000000000003C66667E60603C00009E
:1050900000000000001E3030307E30303030000024
:1050A000000000000000003E66666666663E06067A
:1050B0007C0000000060607C6666666666660000D4
:1050C000000000001818007818181818187E000042
:1050D000000000000C0C003C0C0C0C0C0C0C0C0C1C
:1050E0007800000000606066666C786C66660000A0
:1050F000000000000078181818181818187E000012
:10510000000000000000007E6B6B6B6B6B630000A7
:10511000000000000000007C6666666666660000AF
:10512000000000000000003C66666666663C000009
:10513000000000000000007C66666666667C6060B9
:10514000600000000000003E66666666663E060679
:1051500006000000000000666E7060606060000085
:10516000000000000000003E60603C06067C00007D
:10517000000000000030307E30303030301E000043
:10518000000000000000006666666666663E00007D
:105190000000000000000066666666663C180000BD
:1051A00000000000000000636B6B6B6B3636000084
:1051B0000000000000000066663C183C66660000C7
:1051C000000000000000006666666666663C0C181B
:1051D000F00000000000007E060C1830607E000029
:1051E00000000000000C1818183060301818180C57
:1051F00000000000001818181818181818181818A7
:105200001800000000301818180C060C1818183078
:10521000000000000071DB8E0000000000000000B4
:10522000000004000008000000000000000200016F
:105230000000100054520000000000103C0000006C
:1052400008010000905200003C00001074040000AF
:105250002401000000E1F50500000000000000004E
:10526000000000000100000000000000000000003D
:105270000000000000000000FFFFFFFF0000000032
:10528000000000000000000000000000000000001E
:04000005000000CD2A
:00000001FF
